$
:02000004000DED
:2003000010B581B06F4800F0DBF800236E490B606E490B6000F018FB00F09EFF002803D07B
:2003200001236B48037001E000F05CFD00F044FF01F094FE002367490B6067480378012109
:200340000B43037001F09CFE6449087062490B78802213400B70002361490B800D28ECD045
:200360000A28EAD05F4C3A2805D100F0DCF8002800D196E034E04C2805D100F068F90028A4
:2003800000D18EE02CE04D2805D100F0CDF9002800D186E024E04E2804D100F07FF90028D3
:2003A0007FD01DE0CE2804D100F0E9F9002878D016E05E2804D100F02BFA002871D00FE026
:2003C000E52804D100F05BFA00286AD008E0572803D1802340480370AFE700F0B3FCACE7F3
:2003E00039480368002B07D13D480388002B03D03D4803683448036000F05FFA002850D0A0
:2004000000F096FB00284CD0344908783A2801D040280DD168460330012100F0CCFA0028C0
:200420003FD06A46D078314A117843181B0638D12A490878572807D157232370201C002277
:20044000012101F035FE78E73A2801D12E23F4E74C280BD1264C4C23E370264908780028FC
:2004600000D06071201C01220621EAE7CE2803D05E2801D0E5280BD11D4CE070FF2323710C
:20048000201C0122062101F013FEFC23237154E74D2800D151E7CC2800D14EE7ED2800D188
:2004A0004BE758232370201C0022012101F000FE0022D0430123111C00F002FC01B010BD9B
:2004C0001AE0C04678250D007C250D0080250D00B8250D0084250D00B9250D00BA250D009B
:2004E000B0250D00BB250D0088250D00BC250D00BD250D00C3250D008546F7467047011CC5
:200500000020B24B994204D9B14A8B1AB14A934206D2002904D04A1C02D0CB0700D50120C1
:200520000006000E7047F0B5AB4C201C042100F042FA002800D181E0A84EA94D217862780E
:20054000A778E0785318FB18C3182B70A54B198012023A43A44B1A60002871D0022816D133
:20056000002A6BD1022969D1201C00F024FA002864D02178627853182878C01828700B030E
:2005800010011843306000239648038058E0042818D1002A52D1022950D1201C00F00BFAC4
:2005A000002805D16078217843182878C01828702078030660780004184330600023894904
:2005C0000B803DE005281AD1002A37D1042935D1201C00F0F0F9002830D021786278A77827
:2005E000E0785318FB18C3182C78E4182C700B06110419433B02194301433160C3E701284B
:200600001CD10A431AD1201C012100F0D4F9002814D02378FF2B11D100F09CFA00280DD05C
:2006200072482E2303700022012101F041FD0022D0430123111C00F043FB01E0002005E02F
:200640006948036831685B1803600120F0BD30B501F01EFDFC2805D101F01AFD614908801C
:20066000042801D2002018E05F4C01F011FD051C256001F00DFD03021D43256001F008FD38
:2006800003041D43256001F003FD00062843206054480388043B0380012030BD70B500F080
:2006A00059FA002809D001F0F3FCFC2805D101F0EFFC4C490880042801D0002033E04A4C4D
:2006C00001F0E6FC061C266001F0E2FC03021E43266001F0DDFC03041E43266001F0D8FC67
:2006E000000630432060424842490B78C3700122062101F0DDFC40480568FF2000062B1AC3
:2007000001200006834205D36868FFF7F8FE002800D0256023685A682260281C0123002184
:2007200000F0CEFA012070BD30B500F013FA002807D001F0ADFCFC2803D101F0A9FC05287D
:2007400001D000201AE0284C01F0A2FC051C256001F09EFC03021D43256001F099FC030403
:200760001D43256001F094FC03061D43256001F08FFC011C281C00F045FA012030BD30B526
:2007800001F086FCFF283FD101F082FC04283BD1154D01F07DFC041C2C6001F079FC030225
:2007A0001C432C6001F074FC03041C432C6001F06FFC03061C432C60104B9C4203D1052376
:2007C0001B052B6022E0201C002119E0FF5F090001001400FEFF0D00C4250D0080250D00E8
:2007E000BC250D00B0250D0088250D00BB250D00BD250D00BA250D007C250D00EFEEBEFC62
:2008000000F03FFA002801D1002000E0012030BD30B501F03DFCFF282DD101F039FC042821
:2008200029D1404D01F034FC041C2C6001F030FC03021C432C6001F02BFC03041C432C604D
:2008400001F026FC03061C432C600020230B1B038100354A5158090B09038B4202D1334B3E
:200860000021195401300B28F0DB201C012100F008FA002801D1002000E0012030BD00B5AE
:2008800001F006FCFF2814D101F002FC012810D127480378002B06D001F0FAFB00F0EBFCB8
:2008A000002806D007E001F0F3FB00F0A2FA002801D1002000E0012000BD00B581B029E021
:2008C0001C4803784C2B04D101F0E2FB6946C87006E068460330012100F06DF800280BD0F7
:2008E0006A46D178144803785B1803700D4A106800F0FBF8002801D1002010E009480368CA
:20090000013303600D480388013B03800C4803680133036009480388002BD1D1012001B0D0
:2009200000BD0FE088250D0044210D00C8250D00B8250D00BA250D00BC250D00B0250D003F
:2009400084250D000047704710B50020C4439A490870012399490B70994B9A490B809A49E6
:2009600040230B7030234B7031238B70021C01E088540132954B1A609549062AF8D30E23CA
:200980000B7004234B7001238B70FC230B7148710021904B585401310B29FADB8E49087055
:2009A0008E4908708E4908708E4908608E490C608E49087010BD70B5051C0E1C30E001F08A
:2009C00067FB031C303B0A2B01D230210AE0031C413B062B01D2372104E0031C613B062B21
:2009E00017D25721401A0407240E01F051FB031C303B0A2B01D230210DE0031C413B062B26
:200A000001D2372107E0031C613B062B01D2572101E0002007E0431A1C432C700135013ED8
:200A2000002ECCD1012070BD30B5002406E0035D0D5DAB4201D0002003E001349442F6DB47
:200A4000012030BD10B5002416E063490B78654908682018002B06D0654B195D00F037FCDA
:200A6000002806D007E0624B195D00F0CEF9002801D1002005E001345B4803689C42E4DBD8
:200A8000012010BDF0B5584E564B1A68002A03D1021C1A60002333603568002D23DB032DB6
:200AA00021D0534F79550024AB1898420ED16A1C5049381CFFF7B8FF002806D16A1C4E49F9
:200AC000381CFFF7B1FF002800D00124200603D0691C3160012007E0002D01DDFFF7B2FF36
:200AE0000021C94331600020F0BD30B5041CFF200006231A01200006834214D20D1C0123E5
:200B0000364A1370201CFFF7BDFF00280ED1324A1378291C201C002B02D000F0D8FB06E0AF
:200B200000F073F903E00C2323490B70012030BD10B5002400F092F9002808D000F09DFB66
:200B4000002804D000F03DFB002800D001242006000E10BD30B500241E4D2B5D002B08D054
:200B6000264B195DA000264A105800F028FB00280CD000232B5501340B2CEDDB00F021FB1C
:200B8000002803D0FFF75EFF002801D1002012E0002400F063F9002804D000F06EFB00280E
:200BA00000D001242406240E0B480378002B01D000F0EEFB201C30BDC3250D00B9250D0038
:200BC000204E0000B2250D00D3250D008C250D00BD250D00C8250D00B8250D00D6250D0025
:200BE000B6250D0090250D0094250D00B7250D00D7250D003C210D003F210D0070210D001E
:200C000044210D0010B5C1B00C1CFF2109060E236A461370FB2C20D8231D53700123937028
:200C20004D23D370FC2301AA137000235370431A01221206934212D25A48191C0378221CED
:200C400068460630002B04D000F06EFB002804D00FE000F038F900280BD100200FE0002118
:200C600005E06A468A180378013093710131A142F7D3A11D6846012201F01AFA012041B008
:200C800010BD00B5484A831A01221206934215D20023464A1360DB43454A1360414A137850
:200CA000002B04D0404A801A00F052FB07E0002904D10120C00300F023F900E0002000BD42
:200CC00000B57D20C0010138FDD1002B00D11A1C38490B68222083430B6001201043FFF7F7
:200CE00020FE00BD00B5344B3448036034480378002B03D0334B3448038012E03249088897
:200D00000138088000040CD13048582303700022012101F0CDF90022D0430123111CFFF754
:200D2000CFFF00BD30B5051C002408E0002101317D231B019942FAD3FFF7D4FF0134AC4273
:200D4000F4D330BD10B582B00E2369460B7004234B7001238B70C87001A94B7001F098F96D
:200D600001A9087001F094F9041C04E0FF342406240E01F08DF9002CF8D1684601220621DC
:200D800001F096F902B010BD11490B6811481843086011490B6811480340114818430860E6
:200DA0007047C046B8250D00000000FF90250D0094250D00200436000024F40000903200D1
:200DC000B9250D00204E0000B2250D00BB250D008C00320000F0FF0F78003200F0F0F0F0C3
:200DE0003938383800B500F0CEF800235F490B7000BD00B581B000F0DBF8684603300122F7
:200E0000002100F060F801B000BDF0B5061C0F1C564C574D2078002809D0296843189E425E
:200E200006D000F01BF8002812D0002020702E6021784B1C237020784E4B5F54296843182E
:200E4000190701D0062807D100F008F8002801D1002002E0002323700120F0BD10B583B033
:200E600042480178002901D1012017E0404A1068020A02ACA270E07001230193A020009036
:200E8000A21C3C48022300F0D6F8032801D1002004E0002335490B7000F002F803B010BDA6
:200EA00010B5002406E001347D231B019C4201D1002007E0A0220221002000F04EF9032854
:200EC000F1D0012010BD30B581B0041C151C080A6A469070D170A02268460230022100F044
:200EE0003CF9012809D1A022291C201C00F040F9012802D10006000E00E0002001B030BDA0
:200F000030B581B0051CFF210020FFF77EFF012427E0201C01340021FFF777FF00280ED0B7
:200F2000630602D1144B15480380A30519D16846013001220021FFF7C6FF002801D10020AC
:200F400012E068464378002B0DD0FF2369464B7001238B70CE23CB70481C0122032101F0BB
:200F6000A7F8AC42D5D3012001B030BDB7250D009C250D00DB250D00204E0000B2250D0067
:200F80000138FDD270477F490B68772083430B607D490B687D4803407D48184308600023A3
:200FA0007C490B607C490B7010237C490B7070477A490B7830229343184308707047754AE0
:200FC00013681906090E0220084019D0002313604B0701D5032013E071480378002B0ED0FC
:200FE000002008E06F490B6881006F4A895C195401300006000E6A490B789842F2D30120F7
:20100000704710B5002404E00134630701D1FFF769FEFFF7D4FF0028F6D010BD00B55D48A0
:201020000368DB0706D5FFF7ECFF60490870012359490B7000BDF0B583B002900C1C151CC5
:201040001F1C09A800780990FFF7E8FF38E008210998012803D10823D91B0906090E8C42C4
:2010600001D22106090E0E1C0998019008A8007800903B1C2A1C029800F027F8FFF7C1FF4F
:201080000006000E01281ED1029880190290A41B2404240C391C13D0FF310906090E6A5CF4
:2010A00092196A546A5CB24208D309E0FF310906090E6A5C01326A54120601D10029F5D163
:2010C000002CC4D1012003B0F0BDF0B581B01C1C374ED9239B030025B56006AD2D781D6092
:2010E000002C0BD0002707E0BB00324D5D19D35D2B7001373F063F0EA742F5D307AA1278AA
:20110000002A0DD1274A1060254A11700D1C0120002C19D02B011C4325062D0E032013E090
:2011200000271F4A177065182D062D0E09E03B199B00204A02B4C15D995402BC01373F066F
:201140003F0E8F42F3D3002014490B781843356070600120B06001B0F0BD00B582B0012351
:201160000193009200231A1CFFF765FF02B000BD00B582B00023019300921A1CFFF75BFF71
:2011800002B000BD8C00320074003200FFFFC0C000000A0A1C403600E1250D00E2250D0031
:2011A000E3250D00A0250D0030413600E4250D0014403600304036007047002070470020AD
:2011C000704701207047002070470020704700000021724B585401314029FAD3704710B564
:2011E000000BC2084007400F012383401806000E6A4CA35C002901D0034300E08343A354DF
:2012000010BDF0B581B0051C0E1C20E0290B0091CF084807400F012383401C06240E5F49C3
:20122000C85D204009D1281C012100F091F8002810D05A48C35D2343C355009A531C1B0301
:20124000581E431B591CB14203D2761A451C002EDCD1012001B0F0BD00B50020504908704C
:2012600050490880FFF7B4FF00F001F900F070F90006000E00BD0120704730B548480378C8
:20128000002B14D1474D2988002901D101201DE0454A14684548231A01200006834201D24C
:2012A000424BE41A201CFFF7ACFF002801D100200CE03F4A2988201C00F00CFA29888842D9
:2012C00001D0002000E0012000232B8030BDF0B5061C0F1C32480378002B1FD1314C324D63
:2012E0002088002809D0296843189E4206D0FFF7C4FF002812D0002020802E6021884B1C82
:20130000238020882A4B5F5429684318190501D0402807D1FFF7B1FF002801D1002002E09D
:20132000002323800120F0BD70B5051C0C1C161C00201B490B78002B09D12A1C311C201C9E
:2013400000F07BFAB04201D0002000E0012070BD10B5041C12480378002B12D1201C0029EA
:201360000AD00121090300F050FB002809D0201C0121FFF734FF09E00E4900F046FB002809
:2013800001D1002003E0FF20FFF722FF012010BD00B500F057F9012000BDC046E5250D0064
:2013A00025260D00B4250D00A4250D00000000FF26260D00FFFFFF0F43075B0F01229A4004
:2013C000C3089B009648C35890001B180020002900D0101C1860704710B5C3089B00904C70
:2013E000E45801239B02E4188B00E11843075B0F012098400B68012A01D1034300E0834367
:201400000B6010BD00B5874A116800F0D5FC00BD00B5844A116800F0DBFC00BD00B5814A17
:20142000116800F0E3FC00BDF0B582B01C1C7D4D2B680193079B0093231C00F0E8FC02B0AD
:20144000F0BD30B581B01C1C764D2B680093231C00F0FFFC01B030BD30B581B01C1C714DD4
:201460002B680093231C00F082FC01B030BD6E48FF23873383700123C3706C4B694A136042
:2014800003780122FD218B430370002343706848037003683F218B4313430360101C704721
:2014A00000B500F055F800BDF0B581B05E4C237801218B432370684600F028FA002845D0E2
:2014C000051C00205B4A0C2141438B5C8918AB421CD14B786F463E78B34217D18B787E780F
:2014E000B34213D1CB786F46BE78B3420ED18B88514A13700B7A514A137023780C218B43A7
:201500000122134323706070101C1FE001300006000E0F28D6D3102069460B78BF2B00D182
:201520000F2060700C210B1C43439818007A434A10706A46907803071B0F3F48037023781A
:201540008B430121212003432370081C01B0F0BD00B500F064FD012810D920213848002303
:201560001A1CFFF779FFFFF70FFCFFF79DFF002804D0002000F004F8012000E0002000BD4E
:2015800030B5051C2D4C2378DB0603D55020FFF739FF06E00620FFF735FF00F018F880071D
:2015A000FBD523781B0703D500F011F8C007FBD42B02012119430804000CFFF729FF2378BB
:2015C0001B0703D500F003F8C007FBD430BD10B581B005236C46E370A31CE11C0122101C75
:2015E000FFF72FFFA07801B010BD00B5FFF7EFFF3C210840801000BD10B503079C0EFFF737
:20160000E6FF3C2188430443201CFFF7B9FF0B4A1378DB0702D5201CFFF7B2FF10BDC0463D
:20162000E0230D00A8250D0066260D0000243500AC250D007C210D006A260D006B260D000B
:20164000001BB70000B5FFF7C2FFC007FBD400BDF0B584B001900E1C171C0024002E37D0D9
:201660000620FFF7CFFE02ADB748427814235343B64A9A18D2792A70012400F0A1F92106DF
:20168000884203D3022401A8C3786B70601C0106090E01A883782B554B1C1A06120E4378A5
:2016A0006B54541C2406240E0378AB54002300932A1C211CA0190123FFF7B6FE01230093AE
:2016C0003A1C311CA0190023FFF7AEFEFFF7BAFF04B0F0BDF0B587B001900C1C161C9A4830
:2016E0000378DB0701D5002C01D1002077E000F08DF8974D2B78DB0603D55020FFF782FEA7
:2017000006E00620FFF77EFEFFF761FF8107FBD52878430630D5FF270137830700D580274B
:20172000019D291C381C00F001FD3A1A0292A24200D902940298211A381C00F0DBFC0491C4
:201740000390321C0299281CFFF782FF019D02996D18761805E0391CFFF77AFF019DED19B9
:20176000F6190195321C281C039901390391F2D20499FFF76DFF2FE0022305A8037000258C
:2017800025E00620FFF73EFE01AA937805AA537001AA537805AA937001AA137805AAD37074
:2017A0003178013606AA1170019B01330193FFF70EFF8107FBD50123009305AA0521081CA9
:2017C000FFF732FEFFF703FFC107FBD40135A542D7D30420FFF716FE00F003F8201C07B081
:2017E000F0BD00B55A4803781B060ED556490878830805211940042907D1B920FFF702FE69
:2018000051490B78082003430B7000BD10B54E4C23781B0710D5AB20FFF7F4FD002000E052
:2018200001300322A1560902A2780A439042F7D3237808208343237010BDF0B585B00090FA
:201840000E1C0192029640480378DB0703D4FFF77FFE002801D0002E01D1002054E0FFF7C1
:20186000D5FF371CC82E00D3C8270024384803789B0635484178354D04D514234B43591901
:20188000897903E014234B435919497903AD231C01342406240EE95400F092F80121090602
:2018A000884206D3211C01342406240E6846C3786B54601C0106090E684683782B554B1CE5
:2018C0001A06120E43786B54541C2406240E0378AB541F4803789B0605D5211C013424060F
:2018E000240E55236B54019B3A1C291C201CFFF7A8FD009BDB1900930198C0190190F61B3B
:20190000AFD1FFF76EFF029805B0F0BD70B583B0051C9F23684683701523C3709023029359
:20192000002D00D101ADFFF771FF02242B1C6946023103220120FFF784FD2878002809D0E8
:20194000FF2807D0032039E066260D0048220D006B260D002B1C6946033102220120FFF73A
:2019600070FD0023AB702878002801D0FF280CD12B1C02A902220420FFF763FD0023AB7051
:201980002878002803D0FF2801D0022016E0AB20FFF738FD002002E001300004000CB34E62
:2019A000002171560902033EB2780A439042F3DB013C2404240CB9D12006000E03B070BDA9
:2019C00000B5AB480378DB0703D4FFF7C1FD002805D0A8490878030401200004181800BDF0
:2019E00000B5A3480378DB0706D4FFF7B1FD002802D10120000307E09D4A50780C21414306
:201A00009D4808188079000300BDF0B584B001900D1C002496480378DB0703D4FFF798FDB4
:201A2000002867D0954EFFF7F1FE0620FFF7EAFC934F3A780E2A15D001231B039D4207D8CC
:201A40001421514389190B7BFF2B01D01A1C19E00123DB039D420AD8142151438919897B39
:201A6000FF2904D01421514389198A7B0AE0FFF7B7FF3A78142151438919854201D84A7BE2
:201A800000E0CA7B02AD231C01342406240EEA542B78C97B8B421CD0FFF792FF012109060C
:201AA000884206D3211C01342406240E01A8C3786B54601C0106090E01A883782B554B1CED
:201AC0001A06120E43786B54541C2406240E0378AB54012300932A1C211C201CFFF7A4FCFA
:201AE000FFF775FDC107FBD40420FFF78BFCFFF778FE012004B0F0BDF0B5A0B0061C0F1C16
:201B0000151C5B4C2078C3071FD5031C0420034323700AE08021FFF790FE6A468021301CCF
:201B2000FFF7D8FD80368037803D6A46381C802DF0D8291CFFF781FE237804208343237065
:201B40006A46291C301CFFF7C5FD20B0F0BD00B547490B78DB0754D54A4803781B0650D5E9
:201B6000454819235B041A681207120F012A07D30DD0022A13D0042A18D0082A1DD024E057
:201B80004A780C2353431818C07930221BE04A780C2353431818C079400180381CE04A7861
:201BA0000C2353431818C07918220CE04A780C2353431818C0790C2205E04A780C23534347
:201BC0001818C0790622504305E04A780C2353431818C0790001903843109A0F1318981074
:201BE00088708B78000AC87000060014034302D500238B70CB700B78102003430B70FFF7AE
:201C0000F0FD00BD00B51A480378DB070AD51D4803781B0606D5FFF7F9FD15490B781020EE
:201C200083430B7000BD10B511494B789B001648C05C164C23689B0714D5830080201843B9
:201C40000006000EFFF79CFC23689B06180F01220021FFF7C1FB23689B06180F0021FFF72F
:201C6000ABFB01E0FFF7C8FC10BDC04669260D0066260D006A260D007C210D0048220D005D
:201C800067260D006B260D009C230D00AC250D0000B5084801688B0708D58B06180F0121AB
:201CA000FFF78AFB0020FFF76BFC02E00020FFF7A3FC00BDAC250D000123DB04436270479B
:201CC000436A1B03FCD5704730B5051C0C1C201CFFF7F2FF6560201CFFF7F2FF30BD036820
:201CE00094490B400360704703680121C9020B43036070470368032109030B4303607047DF
:201D000003680721C9020B430360704703680B21C9020B430360704710B5021C002404E048
:201D2000802043581806000E01349442F8D310BD10B5012404430C6000238B627E4B994248
:201D400002D140237D4A0CE07D4A7E4B994209D1546A18239C435462082414621363D3627A
:201D60002023136008600022D2434A6210BD70B5041C049E744D0B431343181C734B1843FC
:201D8000311CFFF7D5FF6B009C4201D1012011E01B129C4201D21C1C02E0AC4200D92C1CF8
:201DA000291C201C00F0A6F93F308006800E4300C0011843306370BD00B581B06A46D0709B
:201DC0000A1C69460331012000F096F801B000BD00B581B06A469070000AD0700A1C694638
:201DE0000231022000F088F801B000BD10B581B06C462070020A6270020CA270030EE37016
:201E00000A1C6946042000F077F801B010BDF0B5071C0E1C141C069D002F19D0002E17D0FA
:201E2000002B02D0281CFFF75AFF002004E021780134C02251510130B042F8D30598002809
:201E400006D0281CFFF750FF291C381CFFF73CFFF0BDF0B581B0051C0091161C1F1C069C15
:201E6000002D23D0002E21D0201CFFF738FF002006E000990A7801310091C0210A51013069
:201E8000A842F6D3201CFFF73BFF211C7019FFF71BFF211C281CFFF73FFF002004E08021F3
:201EA0000A593A7001370130B042F8D301B0F0BDF0B5051C0E1C171C1C1C002D1BD0201CE2
:201EC000FFF70DFF002004E031780136C02211510130A842F8D3201CFFF718FF211C281C28
:201EE000FFF7F2FE002004E080221159397001370130A842F8D3F0BD00B582B001920123DA
:201F000000930A1C011CFFF782FF02B000BD70B5051C0E1C141C002D21D0201CFFF7DFFE38
:201F2000201CFFF7E7FE211C281CFFF7CDFE002013E0C046FF87FFFF00063600000132003C
:201F40000C00350000243500001BB7000002330080221159317001360130A842F8D370BDE9
:201F600003680121C9020B4303607047036837490B40036070470368012109030B43036007
:201F80007047036832490B400360704700B502430A43092040041043191CFFF7C9FE00BD89
:201FA00030B5002304E00C780131C025AC5001338342F8D330BDC0225050704703061B0E82
:201FC000C02253500304180E5050704710B503061B0EC024635003041A0E625003021A0E5C
:201FE0006250030E635010BD80684005400D704730B593695B055B0D834201D2012009E022
:20200000002304E08025AC580C70013101338342F8D3002030BD80694005400D704770B53A
:202020000C4900200C4E34680D68012333603268012A00D1101C084A146001230B600B687F
:20204000012B01D1022210430D6070BDFFF7FFFFFFEFFFFF0C2435000C06360021490B6807
:20206000402003430B600B68202003430B600B6802210B431B490B6000231B490B6070478F
:2020800000B500F005F8012801D100F001F800BD10B5164C012316480360FEF723FE0820B3
:2020A000A066A36E1B07F8D423681806000E10BD10B50E4C0223A366A36E9B07FAD5002A9E
:2020C00007D0042204E001390904090C0278013022600029F7D10220A066A36E9B07FAD5FB
:2020E00010BDC04620043600300436001C0036002C04360030B400230124021C04D10E4A1A
:20210000002A10D030BC1047914207D3891A1B194D08AA42F8D252006400F5E7012C02D052
:1C21200052086408F0E7181C30BC704700B5FFF7E1FF081C08BC1847000000005D
:02000004000DED
:20213C000108000106000000C8005000E8105000E880500000E0530000F0530000E05700AE
:20215C0000F0570000E0590000F0590000E05F0000F05F004343430101010101010101003B
:20217C0003C220140F000103EC000000031F66010100011E6D000000031F65000000011E8F
:20219C00EE00000002BF4800000001FF3000000002BF4900010001FF3000000003C22010CC
:2021BC0000000103EC000000031C311101000103EC0000000337301201000103B000000090
:2021DC000337301101000103B00000000337301001000103B0000000031F42000F00011EF2
:2021FC00EC000000031F43010F00011EEC000000031F44020F00011EEC00000003010220AF
:20221C00FF03401E6C000000032020130700011EEC00000003BFFF140F00011E300000003B
:20223C000320FF140F00011EEC00000006049F0501030B0202FFFFFF20D8D8C7B9AB000079
:20225C0006049F0501030B0202FFFFFF20D8D8C7FFFF0000060415050103FF0202FFFFFFE7
:20227C0020525262B9AB00000604900501030B0202AF50FFFF20D8C7FFFF000006049005AD
:20229C000103FF0202AF50FFFF20D8C7FFFF000006049F0501030B0202FFFFFF20D8D8C70C
:2022BC00B9AB000006049F0501030B0202FFFFFFFF20D8C7B9AB000006049F0501030B02FF
:2022DC0002FFFFFFFF20D8C7B9AB000006049F0501030B0202FFFFFFFF20D8C7B9AB0000E1
:2022FC0006049F0501030B0202FFFFFFFF20D8C7B9AB000006049F0501030B0202FFFFFF24
:20231C0020D8D8C7B9AB000006049F0501030B0202FFFFFF20D8D8C7B9AB000006049F053F
:20233C0001030B0202FFFFFF20D8D8C7B9AB000006049F0501130C1212FFFFFFFFDCFFC7E6
:20235C00FFFF000006049F0501030B0A02FFFFFF20D8D8C7B9AB000006049F0501030B02E3
:20237C0002AD50FF202020C7FFFF000006049F0501030B0202FFFFFF20D8D8C7B9AB000065
:20239C00030000000300000003000000030000000300000003000000030000000300000009
:2023BC000300000003000000010000000F0000000F000000030000000300000003000000D3
:0C23DC000000000000C0320000B0320021
:00030001FC
