$
:02000004000DED
:2002000010B581B06D4800F0D8F800236C490B606C490B6000F030FB01F01CF9002803D0F4
:2002200001236948037001E000F066FD00F084FD02F022F8002365490B606548037801213F
:200240000B43037002F02AF86249087060490B78802213400B7000235F490B800D28ECD0C3
:200260000A28EAD05D4C3A2805D100F0DCF8002800D193E031E04C2805D100F068F90028AD
:2002800000D18BE029E04D2805D100F0D6F9002800D183E021E04E2804D100F07FF90028D7
:2002A0007CD01AE0CE2804D100F0F2F9002875D013E05E2804D100F03EFA00286ED00CE01D
:2002C000E52804D100F06EFA002867D005E0572864D180233E480370AFE739480368002BA3
:2002E00007D13D480388002B03D03D4803683448036000F075FA002850D000F0AFFB0028E0
:200300004CD0344908783A2801D040280DD168460330012100F0E5FA00283FD06A46D0784A
:20032000304A117843181B0638D12A490878572807D157232370201C0022012101F0C6FFA8
:200340007BE73A2801D12E23F4E74C280BD1264C4C23E37025490878002800D06071201C64
:2003600001220621EAE7CE2803D05E2801D0E5280BD11D4CE070FF232371201C0122062164
:2003800001F0A4FFFC23237157E74D2800D154E7CC2800D151E7ED2800D14EE75823237031
:2003A000201C0022012101F091FF0022D0430123111C00F038FC01B010BD19E094270D0053
:2003C00098270D009C270D00D7270D00A0270D00D8270D00D9270D00D0270D00DA270D0077
:2003E000A4270D00DB270D00DC270D00E2270D008546F7467047011C0020B34B994208D93A
:20040000B24B994205D35A1C8B1A03221206934206D2002904D04A1C02D0CB0700D501202A
:200420000006000E7047F0B5A94C201C042100F058FA002800D181E0A64EA74D21786278FF
:20044000A778E0785318FB18C3182B70A34B198012023A43A24B1A60002871D0022816D138
:20046000002A6BD1022969D1201C00F03AFA002864D02178627853182878C01828700B03F9
:2004800010011843306000239448038058E0042818D1002A52D1022950D1201C00F021FAB1
:2004A000002805D16078217843182878C01828702078030660780004184330600023874907
:2004C0000B803DE005281AD1002A37D1042935D1201C00F006FA002830D021786278A77811
:2004E000E0785318FB18C3182C78E4182C700B06110419433B02194301433160C3E701284C
:200500001CD10A431AD1201C012100F0EAF9002814D02378FF2B11D100F0B2FA00280DD031
:2005200070482E2303700022012101F0CFFE0022D0430123111C00F076FB01E0002005E070
:200540006748036831685B1803600120F0BD30B501F0ACFEFC2805D101F0A8FE5F49088003
:20056000042801D2002018E05D4C01F09FFE051C256001F09BFE03021D43256001F096FE8E
:2005800003041D43256001F091FE00062843206052480388043B0380012030BD70B500F0F4
:2005A0006FFA002809D001F081FEFC2805D101F07DFE4A490880042801D000203CE0484C13
:2005C00001F074FE061C266001F070FE03021E43266001F06BFE03041E43266001F066FE28
:2005E000000630432060404840490B78C3700122062101F06BFE3E480568FF2000062B1A3A
:200600000120000683420ED33A482B1A03200006834202D2374B9D4205D86868FFF7EBFE97
:20062000002800D0256023685A682260281C0123002100F0F8FA012070BD30B500F020FAC6
:20064000002807D001F032FEFC2803D101F02EFE052801D000201AE0214C01F027FE051CA9
:20066000256001F023FE03021D43256001F01EFE03041D43256001F019FE03061D4325600A
:2006800001F014FE011C281C00F050FA012030BD30B501F00BFEFF2849D101F007FE04286C
:2006A00045D10F4D01F002FE041C2C6001F0FEFD03021C432C6001F0F9FD03041C432C6076
:2006C00001F0F4FD18E0C046FFBF0500FFFFFFFBE3270D009C270D00DB270D00D0270D0085
:2006E000A4270D00DA270D00DC270D00D9270D0098270D00000000FC03061C432C60534B9D
:200700009C4201D1524C2C605148231A03200006834206D200204F4B0021195401300B28B7
:20072000F9DB201C002100F050FA002801D1002000E0012030BD30B501F0B8FDFF282DD196
:2007400001F0B4FD042829D1434D01F0AFFD041C2C6001F0ABFD03021C432C6001F0A6FDDB
:2007600003041C432C6001F0A1FD03061C432C600020230B1B038100384A5158090B0903CC
:200780008B4202D1334B0021195401300B28F0DB201C012100F019FA002801D1002000E023
:2007A000012030BD00B501F081FDFF2814D101F07DFD012810D12A480378002B06D001F0A7
:2007C00075FD00F05AFE002806D007E001F06EFD00F093FA002801D1002000E0012000BDC9
:2007E00000B581B029E01F4803784C2B04D101F05DFD6946C87006E068460330012100F0D1
:2008000070F800280BD06A46D178174803785B180370114A106800F0FEF8002801D10020E1
:2008200010E00D4803680133036010480388013B03800F480368013303600C480388002B6C
:20084000D1D1012001B000BD14E0C046EFEEBEFC000000FCE7270D00A4270D0060230D0057
:20086000D7270D00D9270D00DB270D00D0270D00A0270D000047704710B50020C4439949AD
:200880000870012398490B70984B99490B80994940230B7030234B7031238B70021C01E0F4
:2008A00088540132944B1A609449062AF8D30E230B7004234B7001238B70FC230B714871F7
:2008C00000218F4B585401310B29FADB8D4908708D4908708D4908708D4908608D490C60CC
:2008E00010BD70B5051C0E1C30E001F0DFFC031C303B0A2B01D230210AE0031C413B062B46
:2009000001D2372104E0031C613B062B17D25721401A0407240E01F0C9FC031C303B0A2B6F
:2009200001D230210DE0031C413B062B01D2372107E0031C613B062B01D2572101E0002090
:2009400007E0431A1C432C700135013E002ECCD1012070BD30B5002406E0035D0D5DAB4224
:2009600001D0002003E001349442F6DB012030BD10B5002416E063490B7865490868201855
:20098000002B06D0644B195D00F0A3FD002806D007E0614B195D00F0B2F9002801D10020E5
:2009A00005E001345B4803689C42E4DB012010BDF0B5584E564B1A68002A03D1021C1A6080
:2009C000002333603568002D23DB032D21D0524F79550024AB1898420ED16A1C4F49381CF7
:2009E000FFF7B8FF002806D16A1C4D49381CFFF7B1FF002800D00124200603D0691C316009
:200A0000012007E0002D01DDFFF7B2FF0021C94331600020F0BD30B5041CFF200006231A2A
:200A200001200006834214D20D1C0123364A1370201CFFF7BDFF00280ED1324A1378291C53
:200A4000201C002B02D000F044FD06E000F057F903E00C2323490B70012030BD10B5002416
:200A600000F04FF9002808D000F009FD002804D000F04EFA002800D001242006000E10BDF6
:200A800030B500241E4D2B5D002B08D0254B195DA000254A105800F089F900280CD0002361
:200AA0002B5501340B2CEDDB00F032FA002803D0FFF75EFF002801D1002012E0002400F0F8
:200AC00020F9002804D000F0DAFC002800D001242406240E0B480378002B01D000F062FDA9
:200AE000201C30BDE2270D00D8270D00204E0000D2270D00F2270D00A8270D00DC270D0025
:200B0000E7270D00D7270D00F5270D00D6270D00AC270D00B0270D00F6270D0058230D0006
:200B20005B230D008C230D0060230D0010B5C1B00C1CFF2109060E236A461370FB2C30D8BE
:200B4000231D5370012393704D23D370FC2301AA137000235370431A01221206934211D235
:200B60005A48191C0378221C68460630002B04D000F0E2FC002814D01FE000F0C6F8002853
:200B80000FD01AE03F218906431A032109068B4209D2221C011C6846063000F0E4F8002822
:200BA0000BD100200FE0002105E06A468A180378013093710131A142F7D3A11D68460122D4
:200BC00001F084FB012041B010BD00B5404A831A01221206934215D200233E4A1360DB43B7
:200BE0003D4A1360394A1378002B04D0384A801A00F0B6FC16E0002913D10120C00300F059
:200C000086F80FE03F229206831A03221206934207D2002902D000F081FA03E000F049FB69
:200C200000E0002000BD00B57D20C0010138FDD1002B00D11A1C29490B68222083430B6053
:200C400001201043FFF700FE00BD00B5244B2548036025480378002B03D0244B2448038037
:200C600012E0234908880138088000040CD12148582303700022012101F028FB0022D04300
:200C80000123111CFFF7CFFF00BD30B5051C002408E0002101317D231B019942FAD3FFF7C3
:200CA000D4FF0134AC42F4D330BD00B500F0D2FB002809D00123054A13700021081C00F0EC
:200CC0004FFC002000F0A6FD00BDC046D7270D00000000FFAC270D00B0270D00200436002B
:200CE0000024F40000903200D8270D00204E0000D2270D00DA270D007047012070470120DC
:200D000070470120704701207047012070470120704700000138FDD270477047704700206F
:200D200070470020704770470020704770470020704700207047000000209D4B002119549C
:200D400001302028F9D300239A490B709A490B709A4B9B490B609B490B685B095B011E20E6
:200D600018430860704706E00B78037001300131FF321206120E002AF6D10120704730B5A3
:200D80000022151C04880C800388A34201D1013202E01C1C0C80002201358B4B9D4201D1EE
:200DA000002002E0642AEFD3012030BDF0B581B0051C0F1C00267F4C207800280BD0834A58
:200DC000116843189D421CD000F0A2F8002829D00021217015D17E480670EB070FD5013DE1
:200DE00069460231281CFFF7CAFF00281AD0684643887848037001232370754803707348AE
:200E0000056021784B1C23702078724B5F546F4A11684318190501D0202806D100F078F8D7
:200E2000002801D1002001E02670012001B0F0BD30B5614D2B78002B52D13F24A406208869
:200E40006188654B2380654A62802388624A934204D12080618004232B7041E0902000F0C0
:200E600015F92088BF2816D1902000F00FF960885B4B18404F23DB01984209D0594B9842E1
:200E800006D0594B984203D09D239B01984202D1012028703BE0902000F001F920880128E3
:200EA00020D1902000F0FBF860884D4B18404F4B984210D08B239B01984208D102232B70C5
:200EC00001234B490B704B4B4B490B6008E089239B01984206D102232B70002344490B707E
:200EE000012014E0902000F0DAF844490888F02323801C280AD1902000F0D1F86088F02315
:200F000023803F4B984201D10323E5E7002030BDF0B582B0274D002201922878002800D160
:200F20009CE02C4E294FC30712D5694602313A688318581EFFF723FF002800D18AE02878E2
:200F40006A4651880B1233540130287001200190FFF76EFF00287DD017490878012803D035
:200F6000022801D003285FD138683F218906431A1A0BD10820296DD20D4B5207520F012472
:200F80009440595C214011D100F0C8F8002861D00F480378002B01D0FF2333700198002828
:200FA00004D0731E2878C018FF230370002437E0FE270D00D6270D001E280D0002030A0ADC
:200FC0007000320064003200C0270900BC270D001F280D0020280D0034120000785600003C
:200FE000E0FF00002027000060530000A022000040280D0000C00FFCC0270D00000200FC24
:20100000BA220000A01940780302315D19436A4651803868201800F067F800281AD00234A4
:201020002B789C42EED317E0042813D100240DE0A01940780302315D19436A4651803868D5
:201040000153035B5088834204D102342B789C42EED301E0002002E000232B70012002B080
:20106000F0BD00B5F0233F2292061380A74A1178012902D100F00AF807E0022901D00329F7
:2010800002D100F00CF800E0FEE700BDAA23A0490B8055239F490B809D4908807047AA23E9
:2010A0009D490B8055239D490B809B490880704730B593009A1A01E0013A0ED080230B409F
:2010C000048880252C40A342F6D1F0233F24A4062380052203E0013A01D1002003E003885F
:2010E0009942F8D1012030BD30B5041C0D1CA020FFF7B7FF258085490A78012A05D1142278
:20110000291C201CFFF7D4FF07E0022A01D0032A02D1FF226932F3E7002030BDF0B581B028
:20112000051CFFF785FE002800D1BFE0774E3378042B00D1BAE02B051B0DED1A3F239B0611
:20114000E91A00910C0BA310580F0319DF10202F00DBABE08020FFF784FF3078012802D14D
:201160006B4A6C4906E0022802D0032800D09DE0694A6A49AA23138055230B8030232B80E4
:20118000012815D1664A6749281CFFF791FF00280ED06548A310590F0B19D910CB00E11A75
:2011A0000122131C8B40C15D1943C155101C7EE03078022801D0032878D15C4A1378002B85
:2011C0000DD10099574A531C99422CD25B10994222D25B10994212D2042600242BE0544A54
:2011E00011688D4206D304266310990F0B1999108B001EE0012292038B1A9D4207D30226F5
:20120000E30F19194B105900631AE41A13E0032292038B1A9D4206D30826A310590F0B1904
:20122000D910CB0005E01026E310190F0B1919110B01E11A641A02281AD13E4A3949281C8E
:20124000FFF736FF002831D03748A310590F0B19DF10A310590F0B19D910CB00E11A01227C
:201260008A40C15D1143C1550134013EECD11BE003281BD1304A2B49281CFFF719FF002871
:2012800014D02948A310590F0B19DF10A310590F0B19D910CB00E11A01228A40C15D11437E
:2012A000C1550134013EECD1012000E0002001B0F0BD30B53F25AD06FFF7BAFD00286ED059
:2012C000124C2378042B6AD08020FFF7CAFE2078012805D1AA230E4A13800E4A0C4908E06A
:2012E000022801D003285AD1AA230B4A13800B4A09495523138010230B8001282AD10F4AFB
:201300000849281CFFF7D4FE1AE0C0461E280D00AAAA00FC545500FCAA0A00FC540500FC23
:20132000A8610000FFFF0000FE270D0040280D00C0270D0080841E0080969800A086010014
:20134000002807D00020174BFF21195401302028F9D322E02378022B0ED1134A1349281C94
:20136000FFF7A6FE002807D000200E4BFF21195401302028F9D310E02378032B0FD10C4A9A
:201380000A49281CFFF794FE002808D00020054BFF21195401302028F9D3012000E00020CB
:2013A00030BDC046FE270D0080969800FFFF000000E1F50500217E4B585401314029FAD383
:2013C000704730B5051C0C1C00F018FC291C00F09FFFC20845076D0F0123AB401906090E7A
:2013E000734DAB5C002C01D00B4300E08B43AB5430BDF0B581B0051C0E1C26E000F0FEFB31
:20140000291C00F085FF0090C7084007400F012383401C06240E664AD05D204009D1281C88
:20142000012100F09DF8002812D06148C35D2343C35500F0E3FB009A511C48430138431BBD
:20144000591CB14203D2761A451C002ED6D1012001B0F0BD00B500205649087056490880F7
:20146000FFF7A8FF00F00DF900F082F90006000E02D101204F49087000BD0120704730B5DC
:201480004C480378002B14D14B4D2988002901D101201DE0494A14684948231A01200006C7
:2014A000834201D2464BE41A201CFFF7A2FF002801D100200CE0434A2988201C00F018FAB0
:2014C0002988884201D0002000E0012000232B8030BDF0B5061C0F1C36480378002B25D1D8
:2014E000354C364D2088002809D0296843189E4206D0FFF7C4FF002818D0002020802E6086
:201500002088431C238021882E4B1F5428680D1800F074FB291C00F017FF002802D0238888
:20152000402B07D1FFF7ABFF002801D1002002E0002323800120F0BD70B5051C0C1C161C98
:2015400000201C490B78002B09D12A1C311C201C00F081FAB04201D0002000E0012070BD33
:2015600010B5041C13480378002B14D100290CD000F044FB011C201C00F055FB00280AD0D1
:20158000201C0121FFF71DFF0AE00F49201C00F04AFB002801D1002003E0FF20FFF70AFF0D
:2015A000012010BD00B500F05BF9012000BDC04641280D0081280D00D4270D00C4270D0034
:2015C000000000FF82280D00FFFFFF0F43075B0F01229A40C3089B009848C35890001B1874
:2015E0000020002900D0101C1860704710B5C3089B00924CE45801239B02E4188B00E118F1
:2016000043075B0F012098400B68012A01D1034300E083430B6010BD00B5894A116800F098
:20162000D9FC00BD00B5864A116800F0DFFC00BD00B5834A116800F0E7FC00BDF0B582B030
:201640001C1C7F4D2B680193079B0093231C00F0ECFC02B0F0BD30B581B01C1C784D2B680E
:201660000093231C00F003FD01B030BD30B581B01C1C734D2B680093231C00F086FC01B074
:2016800030BD7048FF23873383700123C3706E4B6B4A136003780122FD218B43037000237E
:2016A00043706A48037003683F218B4313430360101C704700B500F05BF800BDF0B581B092
:2016C000604C2021624800231A1CFFF7CFFF2378012083432370684600F026FA002845D046
:2016E000051C00205B4A0C2141438B5C8918AB421CD14B786F463E78B34217D18B787E78ED
:20170000B34213D1CB786F46BE78B3420ED18B88514A13700B7A514A137023780C218B4384
:201720000122134323706070101C1FE001300006000E0F28D6D3102069460B78BF2B00D160
:201740000F2060700C210B1C43439818007A434A10706A46907803071B0F3F4803702378F8
:201760008B430121212003432370081C01B0F0BD00B500F062FD01280ED9202134480023E9
:201780001A1CFFF773FFFFF799FF002804D0002000F004F8012000E0002000BD30B5051C31
:2017A0002E4C2378DB0603D55020FFF735FF06E00620FFF731FF00F018F88007FBD523789D
:2017C0001B0703D500F011F8C007FBD42B02012119430804000CFFF725FF23781B0703D50E
:2017E00000F003F8C007FBD430BD10B581B005236C46E370A31CE11C0122101CFFF72BFF2D
:20180000A07801B010BD00B5FFF7EFFF3C210840801000BD10B503079C0EFFF7E6FF3C21F6
:2018200088430443201CFFF7B9FF0C4A1378DB0702D5201CFFF7B2FF10BDC046FC250D002E
:20184000C8270D00C2280D0000243500CC270D00001BB70098230D00C6280D00C7280D00AB
:2018600000B5FFF7C2FFC007FBD400BDF0B584B001900E1C171C0024002E37D00620FFF76D
:20188000CBFE02ADB748427814235343B64A9A18D2792A70012400F0A1F92106884203D33D
:2018A000022401A8C3786B70601C0106090E01A883782B554B1C1A06120E43786B54541CF4
:2018C0002406240E0378AB54002300932A1C211CA0190123FFF7B2FE012300933A1C311C1C
:2018E000A0190023FFF7AAFEFFF7BAFF04B0F0BDF0B587B001900C1C161C9A480378DB0758
:2019000001D5002C01D1002077E000F08DF8974D2B78DB0603D55020FFF77EFE06E00620D9
:20192000FFF77AFEFFF761FF8107FBD52878430630D5FF270137830700D58027019D291C56
:20194000381C00F001FD3A1A0292A24200D902940298211A381C00F0DBFC04910390321CA4
:201960000299281CFFF782FF019D02996D18761805E0391CFFF77AFF019DED19F6190195D3
:20198000321C281C039901390391F2D20499FFF76DFF2FE0022305A80370002525E00620E4
:2019A000FFF73AFE01AA937805AA537001AA537805AA937001AA137805AAD37031780136A1
:2019C00006AA1170019B01330193FFF70EFF8107FBD50123009305AA0521081CFFF72EFE45
:2019E000FFF703FFC107FBD40135A542D7D30420FFF712FE00F003F8201C07B0F0BD00B527
:201A00005A4803781B060ED556490878830805211940042907D1B920FFF7FEFD51490B7890
:201A2000082003430B7000BD10B54E4C23781B0710D5AB20FFF7F0FD002000E001300322FB
:201A4000A1560902A2780A439042F7D3237808208343237010BDF0B585B000900E1C019271
:201A6000029640480378DB0703D4FFF781FE002801D0002E01D1002054E0FFF7D5FF371C33
:201A8000C82E00D3C8270024384803789B0635484178354D04D514234B435919897903E021
:201AA00014234B435919497903AD231C01342406240EE95400F092F801210906884206D322
:201AC000211C01342406240E6846C3786B54601C0106090E684683782B554B1C1A06120E26
:201AE00043786B54541C2406240E0378AB541F4803789B0605D5211C01342406240E552383
:201B00006B54019B3A1C291C201CFFF7A4FD009BDB1900930198C0190190F61BAFD1FFF750
:201B20006EFF029805B0F0BD70B583B0051C9F23684683701523C37090230293002D00D1AF
:201B400001ADFFF771FF02242B1C6946023103220120FFF780FD2878002809D0FF2807D0CA
:201B6000032039E0C2280D0064240D00C7280D002B1C6946033102220120FFF76CFD0023B0
:201B8000AB702878002801D0FF280CD12B1C02A902220420FFF75FFD0023AB7028780028FB
:201BA00003D0FF2801D0022016E0AB20FFF734FD002002E001300004000CB34E0021715624
:201BC0000902033EB2780A439042F3DB013C2404240CB9D12006000E03B070BD00B5AB48C7
:201BE0000378DB0703D4FFF7C3FD002805D0A8490878030401200004181800BD00B5A348D4
:201C00000378DB0706D4FFF7B3FD002802D10120000307E09D4A50780C2141439D4808187C
:201C20008079000300BDF0B584B001900D1C002496480378DB0703D4FFF79AFD002867D036
:201C4000954EFFF7F1FE0620FFF7E6FC934F3A780E2A15D001231B039D4207D81421514344
:201C600089190B7BFF2B01D01A1C19E00123DB039D420AD8142151438919897BFF2904D0E4
:201C80001421514389198A7B0AE0FFF7B7FF3A78142151438919854201D84A7B00E0CA7B97
:201CA00002AD231C01342406240EEA542B78C97B8B421CD0FFF792FF01210906884206D36C
:201CC000211C01342406240E01A8C3786B54601C0106090E01A883782B554B1C1A06120E2E
:201CE00043786B54541C2406240E0378AB54012300932A1C211C201CFFF7A0FCFFF775FDB4
:201D0000C107FBD40420FFF787FCFFF778FE012004B0F0BDF0B5A0B0061C0F1C151C5B4C87
:201D20002078C3071FD5031C0420034323700AE08021FFF790FE6A468021301CFFF7D8FDBA
:201D400080368037803D6A46381C802DF0D8291CFFF781FE23780420834323706A46291C19
:201D6000301CFFF7C5FD20B0F0BD00B547490B78DB0754D54A4803781B0650D545481923F3
:201D80005B041A681207120F012A07D30DD0022A13D0042A18D0082A1DD024E04A780C230D
:201DA00053431818C07930221BE04A780C2353431818C079400180381CE04A780C2353436B
:201DC0001818C07918220CE04A780C2353431818C0790C2205E04A780C2353431818C07981
:201DE0000622504305E04A780C2353431818C0790001903843109A0F1318981088708B78C0
:201E0000000AC87000060014034302D500238B70CB700B78102003430B70FFF7F0FD00BDDC
:201E200000B51A480378DB070AD51D4803781B0606D5FFF7F9FD15490B78102083430B7035
:201E400000BD10B511494B789B001648C05C164C23689B0714D58300802018430006000EC4
:201E6000FFF79CFC23689B06180F01220021FFF7BDFB23689B06180F0021FFF7A7FB01E0A2
:201E8000FFF7C8FC10BDC046C5280D00C2280D00C6280D0098230D0064240D00C3280D0074
:201EA000C7280D00B8250D00CC270D0000B5084801688B0708D58B06180F0121FFF786FB0E
:201EC0000020FFF76BFC02E00020FFF7A3FC00BDCC270D000123DB0443627047436A1B0307
:201EE000FCD5704730B5051C0C1C201CFFF7F2FF6560201CFFF7F2FF30BD036894490B40A1
:201F00000360704703680121C9020B43036070470368032109030B43036070470368072151
:201F2000C9020B430360704703680B21C9020B430360704710B5021C002404E0802043587E
:201F40001806000E01349442F8D310BD10B5012404430C6000238B627E4B994202D140232B
:201F60007D4A0CE07D4A7E4B994209D1546A18239C435462082414621363D36220231360D8
:201F800008600022D2434A6210BD70B5041C049E744D0B431343181C734B1843311CFFF74D
:201FA000D5FF6B009C4201D1012011E01B129C4201D21C1C02E0AC4200D92C1C291C201C98
:201FC00000F0A6F93F308006800E4300C0011843306370BD00B581B06A46D0700A1C694625
:201FE0000331012000F096F801B000BD00B581B06A469070000AD0700A1C69460231022096
:2020000000F088F801B000BD10B581B06C462070020A6270020CA270030EE3700A1C694673
:20202000042000F077F801B010BDF0B5071C0E1C141C069D002F19D0002E17D0002B02D0B0
:20204000281CFFF75AFF002004E021780134C02251510130B042F8D30598002806D0281CCA
:20206000FFF750FF291C381CFFF73CFFF0BDF0B581B0051C0091161C1F1C069C002D23D0ED
:20208000002E21D0201CFFF738FF002006E000990A7801310091C0210A510130A842F6D3B4
:2020A000201CFFF73BFF211C7019FFF71BFF211C281CFFF73FFF002004E080210A593A7077
:2020C00001370130B042F8D301B0F0BDF0B5051C0E1C171C1C1C002D1BD0201CFFF70DFFCB
:2020E000002004E031780136C02211510130A842F8D3201CFFF718FF211C281CFFF7F2FE22
:20210000002004E080221159397001370130A842F8D3F0BD00B582B00192012300930A1CE4
:20212000011CFFF782FF02B000BD70B5051C0E1C141C002D21D0201CFFF7DFFE201CFFF79D
:20214000E7FE211C281CFFF7CDFE002013E0C046FF87FFFF00063600000132000C0035000B
:2021600000243500001BB7000002330080221159317001360130A842F8D370BD036801217B
:20218000C9020B4303607047036837490B40036070470368012109030B4303607047036850
:2021A00032490B400360704700B502430A43092040041043191CFFF7C9FE00BD30B5002381
:2021C00004E00C780131C025AC5001338342F8D330BDC0225050704703061B0EC0225350E3
:2021E0000304180E5050704710B503061B0EC024635003041A0E625003021A0E6250030EFC
:20220000635010BD80684005400D704730B593695B055B0D834201D2012009E0002304E0BB
:202220008025AC580C70013101338342F8D3002030BD80694005400D704770B50C490020AA
:202240000C4E34680D68012333603268012A00D1101C084A146001230B600B68012B01D1D4
:20226000022210430D6070BDFFF7FFFFFFEFFFFF0C2435000C06360021490B68402003433D
:202280000B600B68202003430B600B6802210B431B490B6000231B490B60704700B500F06E
:2022A00005F8012801D100F001F800BD10B5164C012316480360FEF7C8FC0820A066A36E7C
:2022C0001B07F8D423681806000E10BD10B50E4C0223A366A36E9B07FAD5002A07D0042296
:2022E00004E001390904090C0278013022600029F7D10220A066A36E9B07FAD510BDC04603
:2023000020043600300436001C0036002C04360030B400230124021C04D10E4A002A10D0C0
:2023200030BC1047914207D3891A1B194D08AA42F8D252006400F5E7012C02D05208640874
:18234000F0E7181C30BC704700B5FFF7E1FF081C08BC18470000000005
:02000004000DED
:202358000108000106000000C80000FCE81000FCE88000FC00E003FC00F003FC00E007FC88
:2023780000F007FC00E009FC00F009FC00E00FFC00F00FFC434343010101010101010100C1
:2023980003C220140F000103EC000000031F66010100011E6D000000031F65000000011E71
:2023B800EE00000002BF4800000001FF3000000002BF4900010001FF3000000003C22010AE
:2023D80000000103EC000000031C311101000103EC0000000337301201000103B000000072
:2023F8000337301101000103B00000000337301001000103B0000000031F42000F00011ED4
:20241800EC000000031F43010F00011EEC000000031F44020F00011EEC0000000301022090
:20243800FF03401E6C000000032020130700011EEC00000003BFFF140F00011E300000001D
:202458000320FF140F00011EEC00000006049F0501030B0202FFFFFF20D8D8C7B9AB00005B
:2024780006049F0501030B0202FFFFFF20D8D8C7FFFF0000060415050103FF0202FFFFFFC9
:2024980020525262B9AB00000604900501030B0202AF50FFFF20D8C7FFFF0000060490058F
:2024B8000103FF0202AF50FFFF20D8C7FFFF000006049F0501030B0202FFFFFF20D8D8C7EE
:2024D800B9AB000006049F0501030B0202FFFFFFFF20D8C7B9AB000006049F0501030B02E1
:2024F80002FFFFFFFF20D8C7B9AB000006049F0501030B0202FFFFFFFF20D8C7B9AB0000C3
:2025180006049F0501030B0202FFFFFFFF20D8C7B9AB000006049F0501030B0202FFFFFF05
:2025380020D8D8C7B9AB000006049F0501030B0202FFFFFF20D8D8C7B9AB000006049F0521
:2025580001030B0202FFFFFF20D8D8C7B9AB000006049F0501130C1212FFFFFFFFDCFFC7C8
:20257800FFFF000006049F0501030B0A02FFFFFF20D8D8C7B9AB000006049F0501030B02C5
:2025980002AD50FF202020C7FFFF000006049F0501030B0202FFFFFF20D8D8C7B9AB000047
:2025B8000300000003000000030000000300000003000000030000000300000003000000EB
:2025D8000300000003000000010000000F0000000F000000030000000300000003000000B5
:0C25F8000000000000C0320000B0320003
:00020001FD
